:1000000010C017C016C015C014C013C012C011C054
:1000100010C00FC00EC00DC00CC00BC00AC009C07C
:1000200008C011241FBECFE5D2E0DEBFCDBF02D095
:100030003EC0E6CF8AB38C688ABB87B3876087BB34
:100040008BB38C688BBB88B3876088BB85E0DB9AF9
:10005000C19ADF98C2982FE936E891E021503040EC
:100060009040E1F700C00000DF9AC29ADA98C09889
:100070002FE936E891E0215030409040E1F700C090
:100080000000DA9AC09ADB98C1982FE936E891E02F
:10009000215030409040E1F700C000008150B9F697
:1000A0008BB383778BBB88B3887F88BBFFCFF894F3
:0200B000FFCF80
:00000001FF
